{
  "contractName": "MovieRating",
  "abi": [
    {
      "constant": true,
      "inputs": [],
      "name": "ratingCount",
      "outputs": [
        {
          "name": "",
          "type": "uint256"
        }
      ],
      "payable": false,
      "stateMutability": "view",
      "type": "function",
      "signature": "0x24864081"
    },
    {
      "constant": true,
      "inputs": [
        {
          "name": "",
          "type": "uint256"
        }
      ],
      "name": "movies",
      "outputs": [
        {
          "name": "id",
          "type": "uint256"
        },
        {
          "name": "name",
          "type": "string"
        },
        {
          "name": "year",
          "type": "uint256"
        },
        {
          "name": "likes",
          "type": "uint256"
        }
      ],
      "payable": false,
      "stateMutability": "view",
      "type": "function",
      "signature": "0x404ebf6c"
    },
    {
      "constant": true,
      "inputs": [
        {
          "name": "",
          "type": "uint256"
        }
      ],
      "name": "ratings",
      "outputs": [
        {
          "name": "id",
          "type": "uint256"
        },
        {
          "name": "movieId",
          "type": "uint256"
        },
        {
          "name": "rating",
          "type": "uint256"
        },
        {
          "name": "comment",
          "type": "string"
        }
      ],
      "payable": false,
      "stateMutability": "view",
      "type": "function",
      "signature": "0x5d30e84d"
    },
    {
      "constant": true,
      "inputs": [],
      "name": "movieCount",
      "outputs": [
        {
          "name": "",
          "type": "uint256"
        }
      ],
      "payable": false,
      "stateMutability": "view",
      "type": "function",
      "signature": "0xa1daf326"
    },
    {
      "anonymous": false,
      "inputs": [
        {
          "indexed": false,
          "name": "id",
          "type": "uint256"
        },
        {
          "indexed": false,
          "name": "name",
          "type": "string"
        },
        {
          "indexed": false,
          "name": "year",
          "type": "uint256"
        }
      ],
      "name": "MovieCreated",
      "type": "event",
      "signature": "0xa556742872f61acf24329ca03c401df0aad5356db65c0b276d582e947000afbe"
    },
    {
      "anonymous": false,
      "inputs": [
        {
          "indexed": false,
          "name": "movieId",
          "type": "uint256"
        },
        {
          "indexed": false,
          "name": "comment",
          "type": "string"
        }
      ],
      "name": "RatingCreated",
      "type": "event",
      "signature": "0xd805e627199747375920e90ab5872c31a0f230567c83c2dabf8ca680b78809c0"
    },
    {
      "constant": false,
      "inputs": [
        {
          "name": "_name",
          "type": "string"
        },
        {
          "name": "_year",
          "type": "uint256"
        }
      ],
      "name": "createMovie",
      "outputs": [],
      "payable": false,
      "stateMutability": "nonpayable",
      "type": "function",
      "signature": "0x4b06009a"
    },
    {
      "constant": false,
      "inputs": [
        {
          "name": "_movieId",
          "type": "uint256"
        },
        {
          "name": "_rating",
          "type": "uint256"
        },
        {
          "name": "_comment",
          "type": "string"
        }
      ],
      "name": "createRating",
      "outputs": [],
      "payable": false,
      "stateMutability": "nonpayable",
      "type": "function",
      "signature": "0xf3d8b11b"
    },
    {
      "constant": false,
      "inputs": [
        {
          "name": "_id",
          "type": "uint256"
        }
      ],
      "name": "likeMovie",
      "outputs": [],
      "payable": false,
      "stateMutability": "nonpayable",
      "type": "function",
      "signature": "0x1ff8ebe5"
    }
  ],
  "bytecode": "0x608060405260008055600060015534801561001957600080fd5b5061097b806100296000396000f3fe608060405260043610610083576000357c0100000000000000000000000000000000000000000000000000000000900463ffffffff1680631ff8ebe51461008857806324864081146100c3578063404ebf6c146100ee5780634b06009a146101b75780635d30e84d14610289578063a1daf32614610352578063f3d8b11b1461037d575b600080fd5b34801561009457600080fd5b506100c1600480360360208110156100ab57600080fd5b8101908080359060200190929190505050610459565b005b3480156100cf57600080fd5b506100d8610492565b6040518082815260200191505060405180910390f35b3480156100fa57600080fd5b506101276004803603602081101561011157600080fd5b8101908080359060200190929190505050610498565b6040518085815260200180602001848152602001838152602001828103825285818151815260200191508051906020019080838360005b8381101561017957808201518184015260208101905061015e565b50505050905090810190601f1680156101a65780820380516001836020036101000a031916815260200191505b509550505050505060405180910390f35b3480156101c357600080fd5b50610287600480360360408110156101da57600080fd5b81019080803590602001906401000000008111156101f757600080fd5b82018360208201111561020957600080fd5b8035906020019184600183028401116401000000008311171561022b57600080fd5b91908080601f016020809104026020016040519081016040528093929190818152602001838380828437600081840152601f19601f82011690508083019250505050505050919291929080359060200190929190505050610560565b005b34801561029557600080fd5b506102c2600480360360208110156102ac57600080fd5b810190808035906020019092919050505061069a565b6040518085815260200184815260200183815260200180602001828103825283818151815260200191508051906020019080838360005b838110156103145780820151818401526020810190506102f9565b50505050905090810190601f1680156103415780820380516001836020036101000a031916815260200191505b509550505050505060405180910390f35b34801561035e57600080fd5b50610367610762565b6040518082815260200191505060405180910390f35b34801561038957600080fd5b50610457600480360360608110156103a057600080fd5b810190808035906020019092919080359060200190929190803590602001906401000000008111156103d157600080fd5b8201836020820111156103e357600080fd5b8035906020019184600183028401116401000000008311171561040557600080fd5b91908080601f016020809104026020016040519081016040528093929190818152602001838380828437600081840152601f19601f820116905080830192505050505050509192919290505050610768565b005b6000548111156104685761048f565b60026000828152602001908152602001600020600301600081548092919060010191905055505b50565b60015481565b6002602052806000526040600020600091509050806000015490806001018054600181600116156101000203166002900480601f01602080910402602001604051908101604052809291908181526020018280546001816001161561010002031660029004801561054a5780601f1061051f5761010080835404028352916020019161054a565b820191906000526020600020905b81548152906001019060200180831161052d57829003601f168201915b5050505050908060020154908060030154905084565b6080604051908101604052806000548152602001838152602001828152602001600081525060026000805481526020019081526020016000206000820151816000015560208201518160010190805190602001906105bf9291906108aa565b5060408201518160020155606082015181600301559050507fa556742872f61acf24329ca03c401df0aad5356db65c0b276d582e947000afbe60005483836040518084815260200180602001838152602001828103825284818151815260200191508051906020019080838360005b8381101561064957808201518184015260208101905061062e565b50505050905090810190601f1680156106765780820380516001836020036101000a031916815260200191505b5094505050505060405180910390a160008081548092919060010191905055505050565b6003602052806000526040600020600091509050806000015490806001015490806002015490806003018054600181600116156101000203166002900480601f0160208091040260200160405190810160405280929190818152602001828054600181600116156101000203166002900480156107585780601f1061072d57610100808354040283529160200191610758565b820191906000526020600020905b81548152906001019060200180831161073b57829003601f168201915b5050505050905084565b60005481565b600054831115610777576108a5565b60806040519081016040528060015481526020018481526020018381526020018281525060036000600154815260200190815260200160002060008201518160000155602082015181600101556040820151816002015560608201518160030190805190602001906107ea9291906108aa565b509050507fd805e627199747375920e90ab5872c31a0f230567c83c2dabf8ca680b78809c083826040518083815260200180602001828103825283818151815260200191508051906020019080838360005b8381101561085757808201518184015260208101905061083c565b50505050905090810190601f1680156108845780820380516001836020036101000a031916815260200191505b50935050505060405180910390a16001600081548092919060010191905055505b505050565b828054600181600116156101000203166002900490600052602060002090601f016020900481019282601f106108eb57805160ff1916838001178555610919565b82800160010185558215610919579182015b828111156109185782518255916020019190600101906108fd565b5b509050610926919061092a565b5090565b61094c91905b80821115610948576000816000905550600101610930565b5090565b9056fea165627a7a7230582014552fa79edb47d20347c8abc14aafd10f1ccd37a975dc307eead7707a0b7ec60029",
  "source": "pragma solidity >=0.5.0 <0.7.0;\n\ncontract MovieRating {\n\n  struct Rating\n  {\n    uint id;\n    uint movieId;\n    uint rating;\n    string comment;\n  }\n\n  struct Movie {\n    uint id;\n    string name;\n    uint year;\n    uint likes;\n  }\n\n  event MovieCreated(uint id, string name, uint year);\n  event RatingCreated(uint movieId, string comment);\n\n  uint public movieCount = 0;\n  uint public ratingCount = 0;\n\n  mapping(uint => Movie) public movies;\n  mapping(uint => Rating) public ratings;\n\n  // constructor() public {\n  //   createMovie(\"Crouching Tiger, Hidden Dragon\", 2000);\n  // }\n\n  function createMovie(string memory _name, uint _year) public {\n    movies[movieCount] = Movie(movieCount, _name, _year, 0);\n    emit MovieCreated(movieCount, _name, _year);\n    movieCount++;\n  }\n\n  function createRating(uint _movieId, uint _rating, string memory _comment) public {\n    if (_movieId > movieCount)\n      return;\n\n    ratings[ratingCount] = Rating(ratingCount, _movieId, _rating, _comment);\n    emit RatingCreated(_movieId, _comment);\n    ratingCount++;\n  }\n\n  function likeMovie(uint _id) public {\n    if (_id > movieCount)\n      return;\n\n    movies[_id].likes++;\n  }\n\n}",
  "sourcePath": "D:/Documents/Projects/Solidity/movieRatings/contracts/MovieRating.sol",
  "compiler": {
    "name": "solc",
    "version": "0.5.0+commit.1d4f565a.Emscripten.clang"
  },
  "schemaVersion": "3.0.1",
  "updatedAt": "2020-09-27T17:44:42.781Z",
  "devdoc": {
    "methods": {}
  },
  "userdoc": {
    "methods": {}
  }
}